:020000040800F2
:1000000090360020D5010008751D0008551C000819
:10001000711D000851070008194300080000000086
:10002000000000000000000000000000392100086E
:1000300051080008000000000F2100083B210008C3
:10004000EF010008EF010008EF010008EF010008D0
:10005000EF010008EF010008EF010008EF010008C0
:10006000EF010008EF010008EF010008EF010008B0
:10007000EF010008EF010008EF010008EF010008A0
:10008000EF010008EF010008EF010008EF01000890
:1000900061420008EF010008EF010008EF010008CD
:1000A000EF010008EF010008EF010008EF01000870
:1000B000EF010008EF010008EF010008EF01000860
:1000C000EF010008EF010008EF010008EF01000850
:1000D000EF010008EF010008EF010008EF01000840
:1000E000EF010008EF010008EF01000800F002F83E
:1000F00000F060F80AA090E8000C82448344AAF162
:100100000107DA4501D100F055F8AFF2090EBAE85F
:100110000F0013F0010F18BFFB1A43F0010318473B
:1001200038570000585700000A444FF0000C10F8F0
:10013000013B13F0070408BF10F8014B1D1108BF65
:1001400010F8015B641E05D010F8016B641E01F805
:10015000016BF9D113F0080F1EBF10F8014BAD1C55
:100160000C1B09D16D1E58BF01F801CBFAD505E073
:1001700014F8016B01F8016B6D1EF9D59142D6D3CD
:10018000704700000023002400250026103A28BFF5
:1001900078C1FBD8520728BF30C148BF0B607047F9
:1001A0001FB59DE8030000F07FF900F04FF91FBD77
:1001B00010B510BD00F054FA1146FFF7F1FF04F03E
:1001C00053FD00F072FA03B4FFF7F2FF03BC00F036
:1001D00041FA00000948804709480047FEE7FEE76A
:1001E000FEE7FEE7FEE7FEE7FEE7FEE7FEE7FEE7E7
:1001F00004480549054A064B70470000C92100081C
:10020000ED0000089026002090360020902E00205F
:10021000902E002070B50D460646041F00F028F908
:10022000D0F800C0C5B1E6B105F10B0020F007031E
:10023000AB423CBF002070BD2068984238BFDCF85C
:10024000042013D3C11A08292FD3E01840F8041B47
:10025000236000F087F928E0304600F083F90020A1
:1002600070BD2846BDE8704000F04DB9002A18BFA7
:10027000A2423CBF94465268F8D30119914216D16C
:1002800011680844984212D3C11A08293CBF206063
:10029000506808D35168E018416021681268114421
:1002A000C91A01602360CCF80400201D70BD181F1E
:1002B00000F029F9050007D021680A1F211D00F070
:1002C00069F8201D00F04EF9284670BD10B5431C9A
:1002D00002E010F8011B71B18107FAD14FF0013231
:1002E00002C88C1A8C4314EAC211F9D0C01A0A064B
:1002F00003D0C01E10BDC01A10BD0A0401D0801E5C
:1003000010BD0902FCD0401E10BD032A40F230800F
:1003100010F0030C00F0158011F8013BBCF1020F46
:10032000624498BF11F801CB00F8013B38BF11F8C7
:10033000013BA2F1040298BF00F801CB38BF00F8DE
:10034000013B11F0030300F02580083AC0F008805B
:1003500051F8043B083A51F804CBA0E80810F5E73F
:10036000121D5CBF51F8043B40F8043BAFF3008022
:10037000D20724BF11F8013B11F801CB48BF11F897
:10038000012B24BF00F8013B00F801CB48BF00F867
:10039000012B704710B5203AC0F00B80B1E818501F
:1003A000203AA0E81850B1E81850A0E81850BFF45F
:1003B000F5AF5FEA027C24BFB1E81850A0E81850FE
:1003C00044BF18C918C0BDE810405FEA827C24BF52
:1003D00051F8043B40F8043B08BF7047D20728BFE0
:1003E00031F8023B48BF11F8012B28BF20F8023B2F
:1003F00048BF00F8012B70474FF0000200B51346CC
:1004000094469646203922BFA0E80C50A0E80C5034
:10041000B1F12001BFF4F7AF090728BFA0E80C50E5
:1004200048BF0CC05DF804EB890028BF40F8042BDE
:1004300008BF704748BF20F8022B11F0804F18BF4B
:1004400000F8012B704770477047704770B5064C35
:100450007C44064D7D4403E0206820448047241DF1
:10046000AC42F9D170BD00002454000028540000B3
:100470000048704734260020704770477047704727
:1004800038B504460A4600206946AFF300800028CC
:1004900008BF38BD02460099204600F09CF80120B4
:1004A00038BD012000F0B6B8F8B5AFF300800546BE
:1004B00000200C46102000BF0646A819A0420DD906
:1004C000324669460020AFF30080070008BF00F005
:1004D000A1F80098A04218BF0546C419FFF7C8FF4D
:1004E00005600746F01D20F007004619284600F079
:1004F0006BF8B44208BFF8BDA21B31463868BDE8AE
:10050000F84000F068B870B50646FFF7B1FF05681F
:1005100006F10B0020F00704B4429CBF002070BD20
:100520002B466A68BAB11068A04210D304F10801E2
:1005300088423CBF5068586007D351681019416029
:100540001168091B016058601460101D70BD1346CE
:100550005268002AE7D121462846FFF791FF00287C
:10056000DED170BD70B50446051FFFF781FF00683E
:10057000002C14BF446870BD002C18BFAC423CBFB7
:1005800020466468F8D301680A18AA4218BF45607B
:1005900003D12A6805461144016028684119A14227
:1005A0001CBF6C6070BD6168696021680844286088
:1005B00070BD10B500F036F8BDE8104000F025B869
:1005C000004870472C26002000210160C0E901107E
:1005D000704710207047034640688C46002818BFBB
:1005E00088423CBF03464068F8D3186818448842E4
:1005F00007D00CF1030020F00700001D411A521A29
:100600000146081D0A60FFF7ADBF002801D000F0C9
:1006100021B8704710B500F06BF8BDE81040FFF747
:10062000F4BF000010B5002102A000F047F801203F
:1006300010BD00005349475056464E3A205075723F
:1006400065207669727475616C20666E2063616CDA
:100650006C65640001491820ABBEFEE7260002006D
:100660007546FFF7ADFFAE4605006946534620F0DC
:100670000700854618B020B5FFF7BAFDBDE8204059
:100680004FF000064FF000074FF000084FF0000B4E
:1006900021F00701AC46ACE8C009ACE8C009ACE801
:1006A000C009ACE8C0098D46704710B50446AFF3E9
:1006B00000802046BDE81040FFF785BD70B50546B7
:1006C0000C460A2000E06D1C00F03AF835B128789D
:1006D0000028F8D102E0641C00F032F814B1207850
:1006E0000028F8D1BDE870400A2000F029B80000C9
:1006F00010B5012805D0002103A0FFF7DFFF01207E
:1007000010BD09A1F8E7000053494752544D454D2B
:100710003A204F7574206F662068656170206D65A2
:100720006D6F7279000000003A2048656170206D9D
:10073000656D6F727920636F727275707465640095
:1007400008B569468DF800000320ABBE08BD7047B0
:1007500000BFFEE70346042B15D007DC7BB1012B5D
:100760000ED0022B0DD0032B12D10BE0202B0BD07F
:10077000212B0AD0222B09D0232B09D107E008E036
:1007800007E006E005E004E003E002E001E000E04D
:1007900000BF00BF002070470020704710B5002246
:1007A0000449054801F079FE0449034801F06EFE52
:1007B000002010BDF40E0020BC0100200C0B002016
:1007C0002DE9F04104460F46002510E00E48008850
:1007D000401CC0F30A060D480068864206D0605DE2
:1007E0000B49094A12688854074806606D1C38682E
:1007F000A842EBD82146074801F048FE054801F021
:1008000021FE0020BDE8F081580000205C0000209F
:10081000DC120020BC0100202DE9F04104460D4609
:1008200000260A48D0F8B872D7F8140210B1012097
:10083000BDE8F0812A462146044801F02EFE034817
:1008400001F0AFFE06463046F2E70000BC01002092
:100850007047704770B50A480468001D0568001DA0
:100860000668344454B108220649204601F0F4F9E0
:10087000042204491031284601F0EEF970BD000051
:10088000E8F7FF1F3600002070B5044600F0AEF90F
:1008900006462546681C10B104480078054400BF90
:1008A00000F0A4F9801BA842FAD370BD78000020A4
:1008B0002DE9F8470346002294466EE14FF0010807
:1008C00008FA02F4D1F8008008EA0400A0427DD1C1
:1008D000DFF8DCA2D1F80480A8EB0A09D0453AD0B1
:1008E00014DCB8F1030F50D009DCB8F1000F31D09F
:1008F000B8F1010F1CD0B8F1020F49D120E0B8F1D6
:10090000110F18D0B8F1120F42D11EE0B9F5881FAF
:1009100025D006DCB9F5803F20D0B9F5801F37D14E
:100920001AE0B9F5001F18D0B9F5041F30D117E04F
:10093000D1F80CC02DE0D1F80C8008F1040C28E0AF
:10094000D1F80C8008F1080C23E0D1F80C8008F1F4
:100950000C0C1EE000BF00BF00BF00BF00BF00BF07
:10096000D1F80880B8F1000F02D14FF0040C0BE071
:10097000D1F80880B8F1010F03D14FF0080C1C61C9
:1009800002E04FF0080C5C6103E04FF0000C00E067
:1009900000BF00BFFF2801D8984601E003F104081A
:1009A0004646FF2802D84FEA820803E0A2F1080871
:1009B0004FEA88084746D6F800804FF00F0909FA39
:1009C00007F928EA09080CFA07F900E088E048EA84
:1009D0000908C6F80080D1F8048008F08058B8F102
:1009E000805F7DD100BFDFF8CC81D8F8188048F057
:1009F0000108DFF8C091C9F81880C846D8F81880F7
:100A000008F00108CDF8008000BF00BF4FEAB938F8
:100A10004FEA920958F829504FEA82784FEA18793C
:100A20004FF00F0808FA09F825EA0805DFF8888171
:100A3000434502D14FF0000816E0DFF880814345BE
:100A400002D14FF001080FE0DFF87481434502D175
:100A50004FF0020808E0DFF86C81434502D14FF007
:100A6000030801E04FF004084FEA82794FEA197950
:100A700008FA09F848EA0505DFF84C814FEA9209BF
:100A800048F82950D1F8048008F48038B8F5803F40
:100A90000AD1DFF83881D8F8008048EA0008DFF88A
:100AA0002C91C9F8008009E0DFF82081D8F8008097
:100AB00028EA0008DFF81491C9F80080D1F8048012
:100AC00008F40038B8F5003F10D1DFF8008108F1D4
:100AD0000408D8F8008048EA0008DFF8F09000E049
:100AE0005AE009F10409C9F800800DE0DFF8DC8064
:100AF00008F10408D8F8008028EA0008DFF8CC9054
:100B000009F10409C9F80080D1F8048008F48018BC
:100B1000B8F5801F0ED1DFF8B48008F10808D8F8C6
:100B2000008048EA0008DFF8A49009F10809C9F834
:100B300000800DE0DFF8948008F10808D8F8008004
:100B400028EA0008DFF8849009F10809C9F8008054
:100B5000D1F8048008F40018B8F5001F0ED1DFF8B2
:100B60006C8008F10C08D8F8008048EA0008DFF82B
:100B70005C9009F10C09C9F800800DE0DFF84C80A9
:100B800008F10C08D8F8008028EA0008DFF83C904B
:100B900009F10C09C9F80080521CD1F8008028FA2C
:100BA00002F8B8F1000F7FF489AEBDE8F8870000C5
:100BB000000011100010024000080140000C01402C
:100BC00000100140001401400800014000040140F1
:100BD000C2680A400AB1416100E0016170470AB190
:100BE000016101E00B0403617047000001480068E7
:100BF000704700007000002003480068034909782E
:100C00000844014908607047700000207800002007
:100C100010B50848006840F010000649086003203D
:100C200000F0A8F8002000F007F800F02BF80020F2
:100C300010BD00000020024070B504460E48007848
:100C40004FF47A71B1FBF0F00C490968B1FBF0F593
:100C5000284600F0E5FF08B1012070BD102C07D236
:100C600000222146501E00F047F80548046001E0CC
:100C70000120F2E70020F0E7780000207C0000204F
:100C80007400002008B500BF1148806940F00100E1
:100C90000F4988610846806900F00100009000BF9C
:100CA00000BF00BF0846C06940F08050C8610846D8
:100CB000C06900F08050009000BF00BF00BF054930
:100CC000486820F0E06040F00070486000BF08BD58
:100CD000001002400000014001460846002809DBE0
:100CE00000F01F0301229A4043099B0003F1E02317
:100CF000C3F8002100BF70472DE9F05F80460D4624
:100D00001646002703F038FF074639462A46334681
:100D100001F00700C0F1070ABAF1040F02D94FF041
:100D2000040A01E0C0F1070AD14600F1040ABAF151
:100D3000070F02D24FF0000A01E0A0F1030AD446E7
:100D40004FF0010A0AFA09FAAAF1010A0AEA020AAC
:100D50000AFA0CFA4FF0010B0BFA0CFBABF1010B8A
:100D60000BEA030B4AEA0B042146404603F00CFF52
:100D7000BDE8F09F00BF00F00702064B19684FF670
:100D8000FF031940044B0B4343EA0221014B196056
:100D900000BF70470CED00E00000FA0570B5054695
:100DA0000C4604F08000802806D104F0070605F107
:100DB000280000EB461103E005F5947000EB4411A8
:100DC0001AB900200873CB8004E0012008730B815E
:100DD000180C4881002070BD704770B504460D4660
:100DE00004F1280101EB45114A692946D4F868024B
:100DF00001F0DEFE70BD70B504460D4604F5947139
:100E000001EB45114A692946D4F8680201F050FF08
:100E100070BD70B504460E4606F08000802808D1EB
:100E200006F0070104F1280000EB4115012068706D
:100E300007E006F0070104F5947000EB411500206F
:100E4000687006F00700287000BF94F82802012897
:100E500001D1022070BD012084F8280200BF29467C
:100E6000206802F0CEFD00BF002084F8280200BFF9
:100E700000BFEFE770B504460E4606F00F0061684C
:100E8000884201D9012070BD06F08000802808D179
:100E900006F0070104F1280000EB411501206870FD
:100EA00007E006F0070104F5947000EB41150020FF
:100EB00068700020A87006F00700287000BF94F842
:100EC0002802012801D10220DDE7012084F8280250
:100ED00000BF2946206802F0F4FE00BF002084F81D
:100EE000280200BF00BFCEE7024601F0070302F56B
:100EF000947000EB4310C06970472DE9F047054638
:100F00000E4690461F464FF0000906F080008028EC
:100F100008D106F0070105F1280000EB411401207B
:100F2000607007E006F0070105F5947000EB4114CE
:100F30000020607006F007002070C4F81080E77091
:100F4000607808B12078E081022F01D10020207163
:100F500000BF95F82802012802D10220BDE8F087E1
:100F6000012085F8280200BF2146286802F0FAFA1D
:100F700000BF002085F8280200BF4846EEE72DE9B3
:100F8000F04105460E461746984606F0070105F55E
:100F9000947000EB41146761C4F818800020E06190
:100FA000607006F00700207006F0070020B92146A7
:100FB000286802F021FF03E02146286802F01CFFA8
:100FC0000020BDE8F08170B504460D4605F007002D
:100FD0006168884201D9012070BD05F08000802839
:100FE00008D105F0070104F1280000EB41160120AB
:100FF000707005E004F5947000EB451600207070E9
:101000000120B07005F00700307000BF94F828028E
:10101000012801D10220DFE7012084F8280200BF67
:101020003146206802F0BAFE05F0070020B904F549
:101030000C71206802F042FE00BF002084F82802F4
:1010400000BF00BFC8E72DE9F04105460E46174630
:10105000984606F0070105F1280000EB411467618E
:10106000C4F818800020E0610120607006F00700DD
:10107000207006F0070020B92146286802F0BCFE67
:1010800003E02146286802F0B7FE0020BDE8F081A9
:1010900010B50446206803F0EBF800F40040B0F50A
:1010A000004F02D1204600F066FE206803F0E0F811
:1010B00000F48060B0F5806F0ED12068B0F8440075
:1010C00020F480602168A1F84400204600F05AF91D
:1010D0000021204600F076F9206803F0C9F800F4FA
:1010E0008040B0F5804F07D12068B0F8440020F46C
:1010F00080402168A1F84400206803F0B9F800F4AA
:101100000050B0F5005F07D12068B0F8440020F42B
:1011100000502168A1F84400206803F0A9F800F409
:101120008050B0F5805F1CD12068B0F840004FF6C9
:10113000FB7108402168A1F840002068B0F8400029
:101140004FF6F77108402168A1F84000204600F0F2
:101150002BF92068B0F8440020F480502168A1F8F1
:101160004400206803F084F800F40060B0F5006FDC
:101170002AD12068B0F8400040F008002168A1F8AA
:1011800040002068B0F8440020F400602168A1F815
:1011900044002068B0F8400040F004002168A1F845
:1011A0004000206803F064F800F48050B0F5805FE0
:1011B00007D12068B0F8440020F480502168A1F8DD
:1011C0004400204600F040F9206803F051F800F494
:1011D0000070B0F5007F0AD12068B0F8440020F418
:1011E00000702168A1F84400204600F0E4F820686F
:1011F00003F03EF800F48070B0F5807F07D12068DE
:10120000B0F8440020F480702168A1F8440010BDBB
:1012100030B585B0044614B9012005B030BD94F84E
:10122000290228B9002084F82802204600F088F816
:10123000032084F82902206802F036FD142204F10C
:1012400010016846FFF7A6F894E80F0002F0D5FBFE
:1012500020B1022084F829020120DEE70021206865
:1012600003F02FF8002526E0012104F1280000EB0F
:101270004510417004F1280000EB4510057004F1A1
:10128000280000EB4510C581002104F1280000EB87
:101290004510C17004F1280000EB4510016104F114
:1012A000280000EB4510416104F1280000EB4510D7
:1012B0008161681CC5B26068A842D5D8002520E0CD
:1012C000002104F5947000EB4510417004F5947012
:1012D00000EB4510057004F5947000EB4510C170EB
:1012E00004F5947000EB4510016104F5947000EB77
:1012F0004510416104F5947000EB45108161681C54
:10130000C5B26068A842DBD8142204F11001684617
:10131000FFF740F894E80F0002F0B7FC20B102207C
:1013200084F82902012078E7002084F824000120B5
:1013300084F82902206802F0A5FC00206DE7000077
:1013400038B504460D492068884215D100BF0C48C5
:10135000C06940F400000A49C8610846C06900F449
:101360000000009000BF00BF002211461420FFF7CC
:10137000C3FC1420FFF7B0FC38BD0000005C004047
:101380000010024070B504460125A068022801D073
:10139000FFF75FFA2946D4F8680201F0B9FDD4F8E6
:1013A000680201F06BFD70BD10B50446D4F8680208
:1013B00001F092FD10BD10B50446D4F8680201F0AA
:1013C00096FD10BD70B504460D4600BF94F8280286
:1013D000012801D1022070BD012084F8280200BF3D
:1013E00084F824502946206802F06EFF00BF0020D8
:1013F00084F8280200BF00BFEDE710B5044604F5ED
:101400000C71D4F8680201F09AFD10BD10B50446C5
:1014100000BF94F82802012801D1022010BD01204C
:1014200084F8280200BF01212046FFF7D5FC206880
:1014300002F025FC206802F009FF00BF002084F8BC
:10144000280200BF00BFE9E710B50446D4F86802DF
:1014500001F0CEFDA06928B10348006840F0060005
:101460000149086010BD000010ED00E0F8B5044629
:1014700000260025207800F0010000286BD000270E
:101480004348C06900F0805070B900BF4048C0694F
:1014900040F080503E49C8610846C06900F0805065
:1014A000009000BF00BF01273A48006800F4807038
:1014B000B0B93848006840F4807036490860FFF7DA
:1014C00095FB064606E0FFF791FB801B642801D9D7
:1014D0000320F8BD2F48006800F480700028F2D087
:1014E0002B48006A00F440752DB3A08800F44070CA
:1014F000A84220D02648006A20F4407501202649E1
:101500000860002008602248056205F0010090B1E3
:10151000FFF76CFB064608E0FFF768FB801B41F213
:101520008831884201D90320D3E71948006A00F0C6
:1015300002000028F0D01648006A20F4407061686C
:10154000084313490862012F04D10846C06920F0FE
:101550008050C86100BF207800F00200022807D147
:101560000B48406820F44040A1680843084948609F
:10157000207800F01000102807D10548406820F4BA
:101580008000E1680843024948600020A1E70000AC
:1015900000100240007000404004424270B5044612
:1015A0000D460CB9012070BD5A48006800F00700D4
:1015B000A8420ED25748006820F00700284355493A
:1015C00008600846006800F00700A84201D001202A
:1015D000E9E7207800F0020002281DD1207800F011
:1015E0000400042805D14C48406840F4E0604A49B2
:1015F0004860207800F00800082805D14648406877
:1016000040F46050444948604348406820F0F0008E
:10161000A168084340494860207800F0010078B391
:101620006068012806D13C48006800F4003090B999
:101630000120B8E76068022806D13748006800F04A
:10164000007040B90120AEE73348006800F00200A6
:1016500008B90120A7E73048406820F0030061681E
:1016600008432D494860FFF7C1FA064609E0FFF735
:10167000BDFA801B41F28831884202D9032092E7EB
:1016800007E02548406800F00C006168B0EB810F6E
:10169000EDD12048006800F00700A8420ED91D488F
:1016A000006820F0070028431A49086008460068CF
:1016B00000F00700A84201D0012074E7207800F074
:1016C0000400042807D11448406820F4E060E16871
:1016D000084311494860207800F00800082808D124
:1016E0000D48406820F46050216940EAC1000A4971
:1016F000486000F019F808494968C1F30311074A26
:10170000515CC8400649086006480068FFF794FA33
:10171000002048E70020024000100240F854000872
:101720007C00002074000020F0B585B00FF26C0C36
:101730009CE8E01001A8A0E8E0101CA52D68009529
:1017400000210022002300240020194D696801F0C7
:101750000C05F5B1042D02D0082D19D101E0154872
:1017600019E001ADC1F38346AC5D01F4803555B19C
:101770000F4D6D68C5F340451DF805200D4D6543BF
:10178000B5FBF2F302E00C4D04FB05F3184602E052
:1017900000BF084800BF00BF05B0F0BD020304054C
:1017A000060708090A0B0C0D0E0F101001020000AD
:1017B0000010024000127A0000093D00F8B504460E
:1017C0000CB90120F8BD207800F00100002878D085
:1017D000F848406800F00C0004280CD0F548406838
:1017E00000F00C00082811D1F248406800F4803065
:1017F000B0F5803F0AD1EF48006800F400300028BF
:101800005FD0606800285CD10120DBE700BF606822
:10181000B0F5803F06D1E748006840F48030E549E4
:10182000086028E0606858B9E248006820F4803019
:10183000E04908600846006820F4802008601AE04B
:101840006068B0F5A02F0BD1DA48006840F4802022
:10185000D84908600846006840F4803008600AE013
:10186000D448006820F48030D249086008460068F7
:1018700020F48020086000BF606888B1FFF7B6F9E7
:10188000054606E0FFF7B2F9401B642801D90320A2
:1018900098E7C848006800F400300028F2D010E053
:1018A000FFF7A4F9054606E0FFF7A0F9401B6428FE
:1018B00001D9032086E7BF48006800F40030002803
:1018C000F2D1207800F00200022857D1B9484068D0
:1018D00000F00C0050B1B748406800F00C00082838
:1018E00018D1B448406800F4803098B9B148006815
:1018F00000F0020020B12069012801D0012061E739
:10190000AC48006820F0F800616940EAC100A949CC
:10191000086033E02069E8B10120A7490860FFF7BB
:1019200065F9054606E0FFF761F9401B022801D979
:10193000032047E79F48006800F002000028F2D02B
:101940009C48006820F0F800616940EAC1009949AC
:10195000086013E0002098490860FFF747F9054642
:1019600006E0FFF743F9401B022801D9032029E7CD
:101970009048006800F002000028F2D1207800F0C2
:10198000080008282DD1A069B8B101208B49086052
:10199000FFF72CF9054606E0FFF728F9401B02285F
:1019A00001D903200EE78348406A00F002000028B6
:1019B000F2D0012000F0ACFB13E000207F4908606A
:1019C000FFF714F9054606E0FFF710F9401B02285F
:1019D00001D90320F6E67748406A00F002000028AB
:1019E000F2D1207800F00400042873D10027714858
:1019F000C06900F0805070B900BF6E48C06940F007
:101A000080506C49C8610846C06900F08050009061
:101A100000BF00BF01276A48006800F48070B0B9B9
:101A20006748006840F4807065490860FFF7DEF899
:101A3000054606E0FFF7DAF8401B642801D90320C9
:101A4000C0E65F48006800F480700028F2D000BF54
:101A5000E068012806D15748006A40F00100554966
:101A6000086227E0E06858B95248006A20F0010097
:101A7000504908620846006A20F00400086219E034
:101A8000E06805280BD14B48006A40F00400494942
:101A900008620846006A40F0010008620AE0454812
:101AA000006A20F00100434908620846006A20F0FD
:101AB0000400086200BFE068A0B1FFF797F8054690
:101AC00009E0FFF793F8401B41F28831884202D9C0
:101AD000032077E622E03748006A00F00200002881
:101AE000EFD012E0FFF782F8054608E0FFF77EF836
:101AF000401B41F28831884201D9032062E62D481B
:101B0000006A00F002000028F0D1012F05D1294819
:101B1000C06920F080502749C86100BFE069C8B3A0
:101B20002448406800F00C00082860D0E0690228D2
:101B300048D1002020490866FFF758F8054606E01E
:101B4000FFF754F8401B022801D903203AE6194850
:101B5000006800F000700028F2D1206AB0F5803FE4
:101B600007D11448406820F40030A16808431149A7
:101B70004860D4E9080108430E49496821F474110A
:101B800008430C49486001200B490866FFF72EF80E
:101B9000054607E03DE0FFF729F8401B022801D980
:101BA00003200FE60348006800F000700028F2D020
:101BB0002FE0000000100240000042428004424238
:101BC00000700040002014490866FFF70FF8054632
:101BD00006E0FFF70BF8401B022801D90320F1E5CE
:101BE0000E48006800F000700028F2D111E0E069B2
:101BF000012800D1E6E50948466806F48031206AEC
:101C0000814204D106F47011606A814201D0012042
:101C1000D8E50020D6E50000000042420010024056
:101C200070B504462546681EB0F1807F01D30120BF
:101C30000FE0681E4FF0E02148610F214FF0FF30A8
:101C400002F0A2FF00204FF0E02188610720086128
:101C5000002070BD00BFFEE730B50B46002100BF7D
:101C600016E00A24B4EB107F05D9302404EB10747D
:101C700003F8114005E0412404EB10740A3C03F81A
:101C80001140000100254C00641C1D554C1CE1B2A4
:101C90009142E6DB30BD000000B585B00020019028
:101CA00002900390049000BF1C48806940F020001F
:101CB0001A4988610846806900F02000009000BF42
:101CC00000BF00BF0846806940F0080088610846F0
:101CD000806900F00800009000BF00BF00BF084608
:101CE000806940F0040088610846806900F00400C3
:101CF000009000BF00BF002289140948FEF76FFF63
:101D00004FF4805001900120029003900220049033
:101D100001A90348FEF7CCFD05B000BD001002404C
:101D2000000C014010B500220D490E4800F001FFE3
:101D300008B1FEF78EFD0C490A4801F08FF908B191
:101D4000FEF787FD0949074800F099FB08B1FEF747
:101D500080FD044801F04CFA08B1FEF77AFD10BD91
:101D600000000020BC010020900000206000002046
:101D700000BFFEE770472DE9F0470546BDE1286842
:101D8000B0F8449009F00F06002E7ED109F0100043
:101D9000B0BB00BF2968098848F60F7201EA02004B
:101DA00040F400412A68118000BF05F1280428682A
:101DB000B0F85010207801EBC000801C296801F5B4
:101DC000806131F81000C0F30900E061E1696069E9
:101DD0000844606100212846FEF7FFFF95F82400C3
:101DE0000028CBD0A0690028C8D195F8240040F085
:101DF00080002968A1F84C00002085F824007CE1CF
:101E0000FFE705F594742868B0F8008008F40060D6
:101E100030B32868B0F85010207801EBC000801D66
:101E2000296801F5806131F81000C0F30900E06114
:101E3000A18B8BB2E28805F50C71286802F01CFAC0
:101E400000BF2968098840F68F7201EA020040F05D
:101E500080012A68118000BF2846FFF7CEFA4CE1C6
:101E600008F40040002889D000BF2968098840F69E
:101E70008F7201EA020040F080012A68118000BFE1
:101E80002868B0F85010207800E069E001EBC0004D
:101E9000801D296801F5806131F81000C0F3090048
:101EA000E061E06990B1606980B1B4F81CC01FFACC
:101EB0008CF3E2886169286802F0DEF9E169606903
:101EC0000844606100212846FEF795FF00BF2A689C
:101ED0002968B1F850100A4402F20C41084600BFCC
:101EE000236953B9038848F2FF3C03EA0C030380DB
:101EF000038843F4004303801EE023693E2B0DD882
:101F000000BF23695908237C03F0010303B1491C76
:101F10004FF6FF7303EA812303800DE000BF2369BE
:101F20005909237C03F01F0303B9491E4FF40043F2
:101F300043EA8123038000BF00BF00BF00BF2968C0
:101F400009884BF68F7201EA020080F4805080F419
:101F5000005040F4004141F080012A681180CCE03B
:101F60007100286830F8118008F4004000287ED005
:101F700000BF7200296831F8121040F68F7201EA32
:101F8000020040F0800173002A6822F8131000BF9D
:101F900005F5947000EB4614207BB0B92868B0F8C2
:101FA0005010207801EBC000801D296801F5806188
:101FB00031F81000C0F30907002F4FD0E2886169A3
:101FC0003B46286802F058F948E021784900286823
:101FD00030F8110000F48040A8B12868B0F8501023
:101FE000207801EBC000801C296801F5806131F880
:101FF0001000C0F30907DFB1228961693B462868F8
:1020000002F03AF914E02868B0F85010207801EB9B
:10201000C000801D296801F5806131F81000C0F30F
:1020200009072FB1628961693B46286802F024F9EB
:1020300000BF00BF22785200296831F8121048F61C
:102040008F7201EA020040F4004141F0C0012378A0
:102050005B002A6822F8131000BF00BFE069384413
:10206000E061606938446061A06920B100E00DE082
:102070002069B84204D921782846FEF7BCFE05E065
:1020800021782846D4E90523FEF779FF08F080007F
:1020900060B305F1280000EB461400BF7200296808
:1020A00031F8121048F60F7201EA020040F40041C4
:1020B00073002A6822F8131000BF2868B0F8501087
:1020C000207801EBC000801C296801F5806131F89F
:1020D0001000C0F30900E061E169606908446061D3
:1020E000A06920B921782846FEF777FE05E021781F
:1020F0002846D4E90523FEF7A6FF2868B0F8440077
:1021000000F4004000287FF43AAEBDE8F087704745
:1021100008B508490968C9084FF47A72B1FBF2F1B1
:102120004143009100BF00BF00994A1E0092002960
:10213000F9D108BD7C000020704710B5FEF75CFDAA
:1021400010BD00B593B0282109A8FEF755F9142158
:1021500004A8FEF751F9002000900190029003902E
:102160000120099000040A9000200B9001200D909E
:1021700002201090C10311914FF4E011129109A8AF
:10218000FFF71CFB08B1FEF764FB0F200490022050
:102190000590002006904FF4806007900020089082
:1021A000022104A8FFF7FAF908B1FEF752FB10204C
:1021B0000090002003906846FFF758F908B1FEF739
:1021C00048FB13B000BD00001148006840F001005A
:1021D0000F490860084640680E4908400C494860AD
:1021E000084600680C49084009490860084600682C
:1021F00020F4802008600846406820F4FE00486013
:102200004FF41F008860C80304490860704700004D
:10221000001002400000FFF8FFFFF6FE08ED00E0AE
:102220002DE9F04104460D46D4F8B862D4F8C072E6
:10223000D4F8B80268B305EB850104F1140000EB93
:1022400081008068F8B105EB850104F1140000EB12
:102250008100816807F1280000EB45100069B1FB9F
:10226000F0F200FB121070B9002105EB850204F1B9
:10227000140000EB8200816000231A4629462046A4
:1022800000F0C0FE02E00020C6F814020020BDE805
:10229000F0810220FBE770B504460E46D4F8B85230
:1022A0003146204600F057FDC5F80C02D4F8B802BC
:1022B00048B1D5F80402D4F8BC12CA6805F5037118
:1022C0009047002070BD0220FCE770B504460E4622
:1022D00000258121204600F058FC0021E162012107
:1022E000204600F052FC0021C4F86C1182212046E7
:1022F00000F04BFC00212164D4F8B80250B1D4F8AE
:10230000BC1248688047D4F8B80201F024F90020D4
:10231000C4F8B802284670BD70B50546D5F8B84275
:10232000D5F8BC0278B194F80002FF280BD094F8DD
:10233000012294F80002D5F8BC128B682146984718
:10234000FF2084F80002002070BD000001460A2032
:1023500008800148704700008400002001464320A7
:1023600008800148704700000C010020014643200E
:102370000880014870470000C80000200146432043
:102380000880014870470000500100202DE9F0410D
:1023900004460F460026207C88B94FF400730222C1
:1023A0008121204600F03AFD0121E1624B02022228
:1023B000204600F033FD0121C4F86C110FE04023EA
:1023C00002228121204600F029FD0121E162402303
:1023D0000222204600F022FD0121C4F86C110823DE
:1023E00003228221204600F019FD012121644FF4CF
:1023F000077001F0B1F8C4F8B802D4F8B80208B90F
:1024000001261CE0D4F8B852D4F8BC120868804702
:102410000020C5F81402C5F81802207C40B94FF41A
:10242000007301212046D5F8042200F00FFD06E0DC
:10243000402301212046D5F8042200F007FD304654
:10244000BDE8F08170B50446D4F8B852D4F8B802AB
:1024500098B1207C40B94FF4007301212046D5F893
:10246000042200F0F3FC06E0402301212046D5F8C9
:10247000042200F0EBFC002070BD0220FCE70246C5
:10248000022011B1C2F8BC12002070470246D2F8F7
:10249000B832C3F804120020704710B50346D3F8D1
:1024A000B842C4F80812C4F81022002010BD2DE96B
:1024B000FC4105460C46D5F8B8620020019000901A
:1024C0000027207800F0600040B320285FD1E0882A
:1024D000E0B1207800F0800060B1E2886078D5F843
:1024E000BC128B6831469847E2883146284600F096
:1024F000E6F812E0607886F80002A07986F801021A
:10250000E2883146284600F0B9F806E06078D5F850
:10251000BC1200228B68214698473EE0607820B1CB
:102520000A2812D00B282AD11FE095F89C02032814
:1025300005D102226946284600F0C1F804E0214690
:10254000284600F08FF802271FE095F89C02032828
:1025500005D1012201A9284600F0B1F804E0214686
:10256000284600F07FF802270FE095F89C02032828
:1025700004D02146284600F075F8022705E02146E0
:10258000284600F06FF8022700BF00BF05E0214693
:10259000284600F067F8022700BF00BF3846BDE8B4
:1025A000FC8170B50546D5F8B842D5F8B802A8B197
:1025B000D4F8140280B90120C4F81402D4F810121F
:1025C0002963B4F8100283B281212846D4F8082286
:1025D00000F018FD002070BD0120FCE70220FAE7A2
:1025E00070B504460D46D4F8B40229464268204628
:1025F0009047002070BD70B504460D4694F89C02CB
:10260000012804D0022803D003280CD101E000BF28
:1026100000BF6888012805D10020C4F8A402204624
:1026200000F05EF804E02946204600F01BF800BFE9
:1026300000BF70BD70B506460C4615462B462246B7
:102640000021304600F002FC002070BD70B5064647
:102650000C4615462B4622460021304600F0D2FC9F
:10266000002070BD70B504460D468021204600F064
:102670009DFC0021204600F099FC70BD70B5044619
:102680000E4615460320C4F894024FF4AE7005516F
:10269000001D05512B4632460021204600F0D6FB96
:1026A000002070BD10B504460520C4F89402002334
:1026B0001A461946204600F0C9FB002010BD70B52F
:1026C00004460E4615460220C4F89402E5612562D0
:1026D0002B4632460021204600F094FC002070BDBD
:1026E00010B504460420C4F8940200231A46194683
:1026F000204600F087FC002010BD000070B50546A4
:102700000C462DB92246064906A000F0D3F904E094
:102710002246034903A000F0CDF9014870BD000036
:102720000C09002043444320436F6E666967000034
:102730000246122008800148704700001C0000205B
:1027400070B505460C462DB92246064906A000F094
:10275000B1F904E02246034903A000F0ABF90148B7
:1027600070BD00000C09002043444320496E74658D
:10277000726661636500000002460420088001481B
:10278000704700003000002070B505460C46224618
:10279000024903A000F08EF9004870BD0C0900202A
:1027A0005354000070B505460C462DB92246064923
:1027B00006A000F07FF904E02246034903A000F0E0
:1027C00079F9014870BD00000C09002053544D33C5
:1027D00032205669727475616C20436F6D506F7250
:1027E0007400000070B505460C461A202080FEF7E4
:1027F00031F8014870BD00003400002070B5044677
:102800000D46E888012804D029462046FFF72AFF14
:102810001EE094F89C02012804D0022803D003286B
:1028200010D109E000BF0020A060012204F10801DE
:102830002046FFF744FF0AE00122211D2046FFF752
:102840003EFF04E029462046FFF70CFF00BF00BF13
:1028500070BDF8B504460E46002000900027002504
:1028600070880012082875D2DFE800F0C7040C2039
:10287000C7C7A5B5207CD4F8B0120A68694690474E
:102880000746C1E0207C40B9D4F8B402816A6846AA
:10289000884707460220787007E0D4F8B402C16A7E
:1028A00068468847074602207870ADE0B078062871
:1028B00078D2DFE800F00316293C5063D4F8B00268
:1028C000406838B1207CD4F8B0124A686946904715
:1028D000074605E031462046FFF7C4FE681CC5B236
:1028E00067E0D4F8B002806838B1207CD4F8B01228
:1028F0008A6869469047074605E031462046FFF75B
:10290000B1FE681CC5B254E0D4F8B002C06838B15A
:10291000207CD4F8B012CA6869469047074605E0A3
:1029200031462046FFF79EFE681CC5B241E0D4F850
:10293000B002006938B1207CD4F8B0120A69694647
:102940009047074605E031462046FFF78BFE681C9E
:10295000C5B22EE051E0D4F8B002406938B1207C15
:10296000D4F8B0124A6969469047074605E03146F7
:102970002046FFF777FE681CC5B21AE0D4F8B00213
:10298000806940B1207CD4F8B0128A6969469047CA
:10299000074606E006E031462046FFF763FE681C66
:1029A000C5B206E031462046FFF75CFE681CC5B2A2
:1029B00000BF00BF28E0207C30B9D4F8B402416BDE
:1029C00068468847074605E031462046FFF74AFE3D
:1029D000681CC5B218E0207C40B9D4F8B402016B81
:1029E0006846884707460720787005E0314620464C
:1029F000FFF738FE681CC5B206E031462046FFF7F7
:102A000031FE681CC5B200BF00BF05B1F8BDBDF8FE
:102A1000000088B1F08878B1F088BDF800108842D5
:102A200002DDBDF8000000E0F0880090BDF8002055
:102A300039462046FFF743FEF08810B92046FFF7DD
:102A40004FFE00BFE2E70146002002E0421CD0B288
:102A5000491C0A78002AF9D1704770B504460D4622
:102A600094F89C02012804D0022803D003281AD12C
:102A700001E000BF00BFE888022804D029462046B4
:102A8000FFF7F0FD14E00120E060D4F8A40218B1D3
:102A9000E06840F00200E060022204F10C012046F0
:102AA000FFF70DFE04E029462046FFF7DBFD00BFDF
:102AB00000BF70BD2DE9F04104460D4617460026C3
:102AC000FCB12046FFF7BFFF022101EB4000388038
:102AD0003A783046711CCEB22A5403223046711C1B
:102AE000CEB22A540AE014F8012B3046711CCEB243
:102AF0002A5400223046711CCEB22A542078002875
:102B0000F1D1BDE8F0810146002031B1012906D0A4
:102B1000022906D0032908D105E0002007E00220A1
:102B200005E0012003E0022001E0022000BF00BF19
:102B3000704770B504460D4616460CB9022070BDAC
:102B4000D4F8B40210B10020C4F8B4020DB1C4F836
:102B5000B052012084F89C022670204600F004F94F
:102B60000020ECE72DE9F04104460D460026002741
:102B70002946D4F8C002FEF77DF906463046FFF735
:102B8000C2FF07463846BDE8F0812DE9F041044612
:102B90000D46002600272946D4F8C002FEF739F971
:102BA00006463046FFF7AFFF07463846BDE8F081DE
:102BB0002DE9F04104460E461746002E64D104F17B
:102BC0001405D4F89402022848D1D5E903018842BB
:102BD00010D9D5E90301401AE860A88982B23946C4
:102BE0002046FFF733FD00231A461946204600F021
:102BF0002DF93EE02969A868B0FBF1F201FB120053
:102C0000B8B92969A868884213D3A868D4F898127B
:102C100088420ED2002211462046FFF717FD002001
:102C2000C4F8980200231A461946204600F00EF90F
:102C30001FE0D4F8B402C06840B194F89C020328A5
:102C400004D1D4F8B402C1682046884780212046C8
:102C500000F0ACF92046FFF725FD0AE0D4F8940215
:102C6000042802D0D4F8940218B98021204600F03C
:102C70009DF994F8A002012818D1204600F0F6F939
:102C8000002084F8A00211E0D4F8B402406950B1E9
:102C900094F89C02032806D1D4F8B4023146426964
:102CA0002046904702E00220BDE8F0810020FBE7CB
:102CB0002DE9F04104460E461746BEBB04F5AA7541
:102CC000D4F89402032825D1D5E90301884210D90C
:102CD000D5E90301401AE860D5E90301884201D231
:102CE000E86800E0286982B239462046FFF7A2FC76
:102CF0002FE0D4F8B402006940B194F89C02032894
:102D000004D1D4F8B4020169204688472046FFF771
:102D1000E7FC1EE0D4F8940205281AD10020C4F87C
:102D200094020021204600F041F912E0FFE7D4F8B8
:102D3000B402806950B194F89C02032806D1D4F8FB
:102D4000B402314682692046904702E00220BDE885
:102D5000F0810020FBE770B504460D462946D4F803
:102D6000C002FEF7C1F870BD10B504461D48C0F89A
:102D70006842C4F8C0021C481A490860082048602C
:102D800002211848816000218161C1610162FEF762
:102D90003FFA08B1FDF75DFD04F5307418230022F9
:102DA00011462068FDF7FAFF582300228021206891
:102DB000FDF7F4FFC023002281212068FDF7EEFF1C
:102DC0004FF48873002201212068FDF7E7FF206897
:102DD000A4F530744FF4807300228221FDF7DEFFEA
:102DE000002010BD80040020005C004010B50246A9
:102DF000D2F8C03201F08000802807D101F07F04B2
:102E000003F1280000EB4410807810BD01F07F042E
:102E100003F5947000EB44108078F6E72DE9F04755
:102E200004460F4615461E464FF00008C1462B4685
:102E300032463946D4F8C002FEF75FF88046404675
:102E4000FFF761FE81464846BDE8F0872DE9F0476F
:102E500004460D4616461F464FF00008C1463B4645
:102E600032462946D4F8C002FEF789F8804640462B
:102E7000FFF749FE81464846BDE8F08710B5044695
:102E80004023002211462046FFF7C8FF01214FF4DE
:102E9000AC70015140214FF4B27001514023002227
:102EA00080212046FFF7BAFF0121A1614021616224
:102EB000012084F89C020020C4F894026060C4F8E9
:102EC000A402D4F8B80228B12179D4F8B402426837
:102ED00020469047002010BD014691F89C0204282E
:102EE00003D191F89D0281F89C020020704710B533
:102EF000044694F89C02032808D1D4F8B402C069AF
:102F000020B1D4F8B402C16920468847002010BD22
:102F100002461174002070472DE9F04104460D4629
:102F2000002600272946D4F8C002FEF74BFA0646D1
:102F30003046FFF7E8FD07463846BDE8F08170B53A
:102F400004460D46294604F52A7000F073F8012066
:102F5000C4F8940240F2AE20005BC4F8980294F8E2
:102F6000A80200F01F0020B1012808D0022812D1C9
:102F70000BE004F52A71204600F041F913E004F556
:102F80002A71204600F0A8FA0DE004F52A712046C7
:102F900000F086F907E094F8A80200F080012046CE
:102FA00000F004F800BF00BF002070BD2DE9F04123
:102FB00004460D46002600272946D4F8C002FEF735
:102FC00002F806463046FFF79EFD07463846BDE844
:102FD000F08170B5044600250026D4F8C002FEF743
:102FE00015FA05462846FFF78EFD0646304670BDA9
:102FF000014691F89C0281F89D02042081F89C0210
:10300000002070472DE9F04704460D4616461F463E
:103010004FF00008C1463B4632462946D4F8C0026C
:10302000FEF711F880464046FFF76DFD81464846A1
:10303000BDE8F0870A7802704A7842708B78CA78C7
:1030400003EB022242800B794A7903EB0222828051
:103050008B79CA7903EB0222C280704702460020B6
:1030600011B1C2F8B41200E00220704701460020FE
:10307000704770B504460D46A88810BBE88800BBB1
:10308000688880281DD2A87800F07F0694F89C02FA
:10309000032804D129462046FFF7E4FA15E084F816
:1030A0009E6231462046FFF737FF2046FFF718FBA8
:1030B0001EB1022084F89C0207E0012084F89C02E3
:1030C00003E029462046FFF7CDFA70BD70B50446EF
:1030D0000D460226D4F8B40238B1D4F8B402294619
:1030E00002682046904700B90026304670BD0000B7
:1030F00070B504460D46A878364908700846007831
:10310000012804DD29462046FFF7ACFA60E094F878
:103110009C02022802D003284FD11CE02D480078E1
:10312000A8B12C4800786060032084F89C022948EC
:1031300001782046FFF7CAFF022804D1294620461D
:10314000FFF790FA70BD2046FFF7CAFA02E020466A
:10315000FFF7C6FA3BE01F48007870B9022084F8F8
:103160009C021C48007860601A4801782046FFF7EE
:1031700037FA2046FFF7B4FA1EE01649097860686E
:10318000884216D021792046FFF72AFA11480078A4
:103190006060104801782046FFF798FF022804D1AC
:1031A00029462046FFF75EFACCE72046FFF798FA5B
:1031B00002E02046FFF794FA09E029462046FFF78F
:1031C00051FA044801782046FFF70AFA00BF00BF11
:1031D00000BFB7E78000002070B505460C46608848
:1031E000012804D1C5F8A4022846FFF779FA70BD7A
:1031F00010B504462046FFF7ECFE002010BD70B568
:1032000005460C460026207800F0600060B12028BA
:1032100002D040283CD100E000BFD5F8B4022146DE
:1032200082682846904738E060780A2829D2DFE88B
:1032300000F01923281E280A0528140F21462846C5
:10324000FFF707FB22E021462846FFF712FF1DE0AB
:1032500021462846FFF74CFF18E021462846FFF795
:10326000CDFA13E021462846FFF7F7FB0EE0214692
:103270002846FFF7B1FF09E021462846FFF7BBF9D2
:1032800004E021462846FFF7EDF900BF00BF04E047
:1032900021462846FFF7E6F900BF00BF304670BD63
:1032A0002DE9F04105460E464FF00008347930789C
:1032B00000F0600060B1202802D0402871D100E009
:1032C00000BFD5F8B402314682682846904700E135
:1032D000307800F06000202809D1D5F8B4023146DA
:1032E00082682846904780464046BDE8F081707865
:1032F00000285ED001282FD0032876D195F89C02B3
:10330000022802D0032820D110E054B1802C08D02C
:1033100021462846FFF74AFE80212846FFF746FE51
:1033200003E031462846FFF79DF913E0708840B965
:103330003CB1802C05D0F08818B921462846FFF70B
:1033400035FE2846FFF7CCF904E031462846FFF762
:1033500089F900BF00BFB5E095F89C02022802D0B1
:1033600003281FD110E054B1802C08D021462846F4
:10337000FFF71CFE80212846FFF718FE03E03146C8
:103380002846FFF76FF912E0708848B904F07F0013
:1033900018B121462846FFF7E5FB2846FFF7A0F9BC
:1033A00005E091E031462846FFF75CF900BF00BF19
:1033B00088E095F89C02022802D0032876D126E006
:1033C00034B1802C04D031462846FFF74BF972E027
:1033D00004F08000802809D104F07F0000EB800118
:1033E00005F1140000EB810008E066E004F07F00C6
:1033F00000EB800105F5AA7000EB81000746002074
:103400003860022239462846FFF759F953E004F0A4
:10341000800080280ED104F00F0000EB800105F140
:10342000140000EB8100406898B931462846FFF748
:1034300019F940E004F00F0000EB800105F5AA70D7
:1034400000EB8100406820B931462846FFF70AF9B1
:1034500031E004F08000802808D104F07F0000EB08
:10346000800105F1140000EB810007E004F07F000B
:1034700000EB800105F5AA7000EB810007460CB156
:10348000802C02D10020386009E021462846FFF751
:10349000ADFC10B10120386001E00020386002224C
:1034A00039462846FFF70BF905E0FFE73146284685
:1034B000FFF7D8F800BF00BF04E031462846FFF709
:1034C000D1F800BF00BF04E031462846FFF7CAF834
:1034D00000BF00BF404608E770B505460C46002611
:1034E000207800F0600030B1202802D040282AD196
:1034F00000E000BF00BF95F89C02012804D002281C
:1035000003D0032818D101E000BF00BF20790128B3
:103510000DDCD5F8B402214682682846904706465D
:10352000E08840B93EB92846FFF7DAF803E02146C3
:103530002846FFF797F804E021462846FFF792F85F
:1035400000BF00BF04E021462846FFF78BF800BF0C
:1035500000BF002070BD7047014601487047000061
:10356000EC060020F0B5024600260878400032F84C
:10357000100048F68F1400EA0403C87830B101281F
:103580000CD0022805D003280BD104E043F40073CB
:1035900009E000BF07E043F4C06304E043F4806344
:1035A00001E0012600BF00BF43F4004040F080006E
:1035B0000C78640022F8140000BF0C78640032F824
:1035C000144048F68F752C400D7844EA050040F40D
:1035D000004444F080040D786D0022F8154000BFCF
:1035E000087B00287ED14878002852D000BF1046C2
:1035F000B2F8505028440D7800F5806707EB0514A9
:10360000CD886D106D00258000BF00BF0C78640070
:1036100032F8140000F040048CB100BF0D786D004A
:1036200032F8155048F68F7705EA070444F4004550
:1036300045F0C0050F787F0022F8175000BF00BF8B
:10364000C878012813D000BF0C78640032F8144009
:1036500048F6BF7504EA050080F0200040F40044FD
:1036600044F080040D786D0022F81540C3E100BFDE
:103670000C78640032F8144048F6BF7504EA05007F
:1036800040F4004444F080040D786D0022F81540A9
:10369000B1E100BF1046B2F8505028440D7804271D
:1036A00007EBC50500F5806707EB4504CD886D1075
:1036B0006D00258000BF00BF1546B2F8504025447C
:1036C0000C78062707EBC40405F5806707EB440474
:1036D000204600BF0F6967B9078848F2FF3C07EA38
:1036E0000C0700E057E00780078847F40047078091
:1036F0001EE00F693E2F0DD800BF0F697C080F7CBC
:1037000007F0010707B1641C4FF6FF7707EA84272B
:1037100007800DE000BF0F697C090F7C07F01F07D1
:1037200007B9641E4FF4004747EA8427078000BFAB
:1037300000BF00BF00BF0C78640032F8140000F432
:1037400080448CB100BF0D786D0032F8155048F6FA
:103750008F7705EA070444F4004545F481450F7866
:103760007F0022F8175000BF00BF00BF0C78640034
:1037700032F814404BF68F7504EA050080F480504F
:1037800080F4005040F4004444F080040D786D0053
:1037900022F815402FE100BF0C78640032F8144085
:1037A00048F68F7504EA050040F4004444F4C07400
:1037B0000D786D0022F8154000BF00BF00BF00BFAC
:1037C0001046B2F8505028440D7800F5806707EB9A
:1037D00005140D896D106D00258000BF00BF00BF6E
:1037E00000BF1046B2F8505028440D78042707EB6C
:1037F000C50500F5806707EB45044D896D106D0028
:10380000258000BF00BF00BF4878002870D100BFEE
:103810000C78640032F8140000F480448CB100BFCE
:103820000D786D0032F8155048F68F7705EA0704D9
:1038300044F4004545F481450F787F0022F8175085
:1038400000BF00BF00BF0C78640032F8140000F025
:1038500040048CB100BF0D786D0032F8155048F669
:103860008F7705EA070444F4004545F0C0050F785A
:103870007F0022F8175000BF00BF00BF0C78640023
:1038800032F8144048F68F7504EA050040F400440D
:1038900044F0C0040D786D0022F8154000BF00BF51
:1038A0000C78640032F814404BF68F7504EA05007A
:1038B00080F4805080F4005040F4004444F08004D0
:1038C0000D786D0022F8154000BF00BF0C78640031
:1038D00032F8144048F6BF7504EA050040F400448D
:1038E00044F080040D786D0022F8154083E0FFE776
:1038F00000BF0C78640032F8140000F480448CB1EE
:1039000000BF0D786D0032F8155048F68F7705EA44
:10391000070444F4004545F481450F787F0022F800
:10392000175000BF00BF00BF0C78640032F81400CD
:1039300000F040048CB100BF0D786D0032F81550D6
:1039400048F68F7705EA070444F4004545F0C005C2
:103950000F787F0022F8175000BF00BF00BF0C781F
:10396000640032F8144048F68F7504EA050040F40C
:10397000004444F481440D786D0022F8154000BFE6
:10398000C878012813D000BF0C78640032F81440C6
:1039900048F6BF7504EA050080F0200040F40044BA
:1039A00044F080040D786D0022F8154011E000BF4E
:1039B0000C78640032F8144048F6BF7504EA05003C
:1039C00040F4004444F080040D786D0022F8154066
:1039D00000BF00BF0C78640032F814404BF68F75BE
:1039E00004EA050040F4004444F080040D786D00C2
:1039F00022F8154000BF3046F0BD10B50446002047
:103A000010BD30B50246087B00285BD1487860B312
:103A100000BF0B785B0032F8130000F040038BB15D
:103A200000BF0C78640032F8144048F68F7504EA41
:103A3000050343F4004444F0C0040D786D0022F8FF
:103A4000154000BF00BF00BF0B785B0032F8133099
:103A500048F6BF7403EA040040F4004343F08003D7
:103A60000C78640022F8143007E100BF0B785B008B
:103A700032F8130000F480438BB100BF0C7864006F
:103A800032F8144048F68F7504EA050343F4004405
:103A900044F481440D786D0022F8154000BF00BF4A
:103AA00000BF0B785B0032F813304BF68F7403EADB
:103AB000040040F4004343F080030C78640022F8D3
:103AC0001430DAE0487800286BD100BF0B785B0037
:103AD00032F8130000F480438BB100BF0C7864000F
:103AE00032F8144048F68F7504EA050343F40044A5
:103AF00044F481440D786D0022F8154000BF00BFEA
:103B000000BF0B785B0032F8130000F040038BB16C
:103B100000BF0C78640032F8144048F68F7504EA50
:103B2000050343F4004444F0C0040D786D0022F80E
:103B3000154000BF00BF00BF0B785B0032F81330A8
:103B400048F68F7403EA040040F4004343F0C003D6
:103B50000C78640022F8143000BF00BF0B785B00C3
:103B600032F813304BF68F7403EA040040F400433C
:103B700043F080030C78640022F8143000BF00BFCB
:103B80000B785B0032F8133048F6BF7403EA040088
:103B900040F4004343F080030C78640022F81430B2
:103BA0006BE000BF0B785B0032F8130000F4804339
:103BB0008BB100BF0C78640032F8144048F68F7562
:103BC00004EA050343F4004444F481440D786D0095
:103BD00022F8154000BF00BF00BF0B785B0032F831
:103BE000130000F040038BB100BF0C78640032F882
:103BF000144048F68F7504EA050343F4004444F08A
:103C0000C0040D786D0022F8154000BF00BF00BF52
:103C10000B785B0032F8133048F68F7403EA040027
:103C200040F4004343F481430C78640022F81430DC
:103C300000BF00BF0B785B0032F8133048F6BF744A
:103C400003EA040040F4004343F080030C7864006E
:103C500022F8143000BF00BF0B785B0032F813303D
:103C60004BF68F7403EA040040F4004343F08003F2
:103C70000C78640022F8143000BF002030BD0146EB
:103C80000020704701460020704710B5044601200F
:103C900024F8400F00202080A0802082403C204655
:103CA00000F0D4FA002010BD01464FF43F42B1F8B5
:103CB00040009043A1F840000020704702460020D9
:103CC000704730B50246087B002865D1487888B334
:103CD00000BF0B785B0032F8130000F040038BB19B
:103CE00000BF0C78640032F8144048F68F7504EA7F
:103CF000050343F4004444F0C0040D786D0022F83D
:103D0000154000BF00BFC878012845D000BF0B7820
:103D10005B0032F8133048F6BF7403EA040080F009
:103D2000200040F4004343F080030C78640022F844
:103D3000143031E0FFE700BF0B785B0032F813006E
:103D400000F480438BB100BF0C78640032F814405B
:103D500048F68F7504EA050343F4004444F48144B3
:103D60000D786D0022F8154000BF00BF00BF0B7832
:103D70005B0032F813304BF68F7403EA040080F4D2
:103D8000805080F4005040F4004343F080030C78EE
:103D9000640022F8143000BF002030BD10B5024688
:103DA000487898B100BF0B785B0032F8133048F6C2
:103DB000BF7403EA040080F0100040F4004343F0B5
:103DC00080030C78640022F8143013E000BF0B78F5
:103DD0005B0032F813304BF68F7403EA040080F472
:103DE000805040F4004343F080030C78640022F8D4
:103DF000143000BF002010BD2DE9F04306460C46EC
:103E00006078012871D12169A069884204D92569A7
:103E1000A069401BA06102E0A5690020A061207B91
:103E2000A0B9ABB2E2883046616900F054FA00BF35
:103E30003046B6F8502010442278022303EBC20229
:103E400000F5806303EB42010D80E2E02078400042
:103E500036F8100000F0400000285AD000BF33466A
:103E6000607880BB00BF3246B6F850100A44217813
:103E70004FF0060808EBC10102F5806808EB41012C
:103E8000084600BF75B9B0F8008048F2FF3908EA6B
:103E90000908A0F80080B0F8008048F40048A0F8B5
:103EA000008020E03E2D0FD800BF690805F0010812
:103EB000B8F1000F00D0491C4FF6FF7808EA8128BE
:103EC000A0F800800FE011E000BF690905F01F08AD
:103ED000B8F1000F00D1491E4FF4004848EA81288C
:103EE000A0F8008000BF00BF10E0A8E060780128C3
:103EF0000CD1B6F8500003442078062101EBC00035
:103F000003F5806101EB400CACF8005000BF6789FD
:103F10004EE000BF6078B0BB00BF3246B6F850102C
:103F20000A442178022303EBC10102F5806303EB0D
:103F30004101084600BF55B9038848F2FF3C03EA37
:103F40000C030380038843F40043038019E03E2DF3
:103F50000BD800BF690805F0010303B1491C4FF6F7
:103F6000FF7303EA812303800BE000BF690905F0BA
:103F70001F0303B9491E4FF4004343EA8123038022
:103F800000BF00BF12E0FFE7607801280ED100BF3C
:103F90003046B6F8502010442278022303EBC202C8
:103FA00000F5806303EB42010D8000BF00BF27894D
:103FB000ABB23A463046616900F08DF900BF6078D7
:103FC00088B900BF2178490036F8111048F68F7281
:103FD00001EA020040F4004141F0C00122785200A1
:103FE00026F8121014E06078012811D100BF217862
:103FF000490036F8111048F68F7201EA020040F4C9
:10400000004141F481412278520026F8121000BF8D
:1040100000BF00BF2178490036F8111048F6BF7282
:1040200001EA020080F0100080F0200040F400411E
:1040300041F080012278520026F8121003E1216934
:10404000A069884204D92569A069401BA06102E0EB
:10405000A5690020A061207BB0BB00BF3246B6F846
:1040600050100A442178062303EBC10102F5806356
:1040700003EB4101084600BF55B9038848F2FF3CF5
:1040800003EA0C030380038843F40043038019E030
:104090003E2D0BD800BF690805F0010303B1491C90
:1040A0004FF6FF7303EA812303800BE000BF690929
:1040B00005F01F0303B9491E4FF4004343EA81236F
:1040C000038000BF00BFA8E0FFE700BF00BF60782B
:1040D000B0BB00BF3246B6F850100A442178022324
:1040E00003EBC10102F5806303EB4101084600BF09
:1040F00055B9038848F2FF3C03EA0C0303800388A8
:1041000043F40043038019E03E2D0BD800BF69083B
:1041100005F0010303B1491C4FF6FF7303EA812345
:1041200003800BE000BF690905F01F0303B9491EB6
:104130004FF4004343EA8123038000BF00BF12E035
:10414000FFE7607801280ED100BF3046B6F8502056
:1041500010442278022303EBC20200F5806303EBD4
:1041600042010D8000BF00BF00BF3346607880BBB6
:1041700000BF3246B6F850100A4421784FF00608C6
:1041800008EBC10102F5806808EB4101084600BF59
:1041900075B9B0F8008048F2FF3908EA0908A0F8BC
:1041A0000080B0F8008048F40048A0F8008020E0CB
:1041B0003E2D0FD800BF690805F00108B8F1000FC7
:1041C00000D0491C4FF6FF7808EA8128A0F800804B
:1041D0000FE010E000BF690905F01F08B8F1000FFB
:1041E00000D1491E4FF4004848EA8128A0F8008019
:1041F00000BF00BF0FE0607801280CD1B6F8500076
:1042000003442078062101EBC00003F5806101EB37
:10421000400CACF8005000BF00BF00BF217849003F
:1042200036F811104BF68F7201EA020080F48050CC
:1042300080F4005040F4004141F0800122785200A7
:1042400026F8121000BF0020BDE8F08301464FF4AD
:104250003F42B1F840001043A1F8400000207047F1
:1042600010B50248FCF714FF10BD000080040020C8
:104270000146B1F8440070472DE9F04304460E466C
:1042800015464FEA530CA046304608F5806909EB05
:10429000450267460AE01188921C0170401C4FEAF3
:1042A000112980F80090401C921C7F1E002FF2D133
:1042B00003F00109B9F1000F01D011880170BDE8C8
:1042C000F083024600207047024611B98020A2F810
:1042D0004C00002070472DE9F04704460D461E466D
:1042E00006F1010A4FEA5A08A146284609F5806AF4
:1042F0000AEB420347460BE090F800C0401C90F8E0
:1043000000A04CEA0A2119809B1C9B1C401C7F1EAC
:10431000002FF1D1BDE8F08700BFFEE7014601485C
:1043200070470000585600080146014870470000D9
:104330007956000870B50446204600F0A1F90446FD
:104340001F482060251D284600F09AF905461D48A3
:1043500028600020686005F1080000F097F9A0F1DE
:1043600008051948286100BF2C1F04F118052846CC
:1043700000F086F905461548286000206860A860AE
:10438000E860286100BFA5F11804242105F114009C
:10439000FCF732F804F1500000F032F8A0F15004BC
:1043A00024211030FCF728F804F1840000F028F8EC
:1043B000A0F1840424211030FCF71EF8204670BDC3
:1043C0004855000830560008245800086055000879
:1043D000014601487047000089560008014601481F
:1043E00070470000AA5600080146014870470000C7
:1043F000C35600080146014870470000E456000813
:1044000010B50446204600F03BF9044603482060FE
:1044100000206060A060E060204610BD7855000874
:104420002DE9F84F06460D4600242F5D28194078E7
:1044300047EA00272819807847EA00472819C078FA
:1044400047EA0067241D7068B84204D2B900F068DA
:10445000FBF7E0FEF060776000201FE00021009194
:104460002A5D0099114300912A195278009941EA76
:10447000022100912A199278009941EA02410091A3
:104480002A19D278009941EA026100910099B1603D
:10449000241DD6E9022141F82020401C7168814288
:1044A000DCD815F804802819407848EA0028281933
:1044B000807848EA00482819C07848EA0068241D36
:1044C0003069404505D24FEA8801B069FBF7A2FE8A
:1044D000B061C6F8108000201FE0002100912A5D25
:1044E0000099114300912A195278009941EA02215A
:1044F00000912A199278009941EA024100912A1903
:10450000D278009941EA0261009100997161241DFD
:10451000D6E9052141F82020401C31698142DCD8D0
:1045200015F804902819407849EA0029281980785C
:1045300049EA00492819C07849EA0069241DF06950
:10454000484505D24FEA8901706AFBF763FE706245
:10455000C6F81C904FF0000A1EE02919684600F0CA
:1045600029FF241D204603E02A5C411E6A54401C9A
:10457000009921448142F7D8002100982044401E30
:1045800029542819401E306200980444D6E90810C6
:1045900040F82A100AF1010AF0695045DDD820469A
:1045A000BDE8F88F0146014870470000FA56000840
:1045B00001460148704700001055000801460148B7
:1045C000704700001B570008014601487047000073
:1045D0003C5700080146014870470000505700084A
:1045E00001460148704700007157000870B5074D3B
:1045F0000C68B4FBF5F605FB16430C68B4FBF5F24A
:104600000468144404600B6070BD000000CA9A3B4B
:104610002DE9F341044601AF3868C0F3C7560EB127
:1046200006F560763D68002004F8010B04F8010BE4
:1046300004F8010B6807000E04F8010BC5F3C7006E
:1046400004F8010BC5F3C72004F8010BF02000EAC1
:104650000610C5F3C341084304F8010BC6F3061066
:1046600004F8010B0021019800F0CCFE05D214F8EB
:10467000010C40F0800004F8010C0820BDE8FC812A
:1046800001490160704700000056000800210160E8
:104690004160704770B504460D46D4E902100268C7
:1046A00013682A46984770BD0160426003617047F5
:1046B00010B5024600200B5C53600C1864785368F8
:1046C00043EA042353600C18A478536843EA044374
:1046D00053600C18E478536843EA04635360001D88
:1046E0000C5C94600C186478936843EA042494602A
:1046F0000C18A478936843EA044494600C18E47896
:10470000936843EA04649460001D10BD01460148AB
:1047100070470000C4570008014601487047000078
:10472000E557000810B504462046FFF7A9FF0446E8
:1047300003482060201DFFF7A9FF041F204610BD7D
:10474000185600080146014870470000F35700085A
:10475000014601487047000014580008014601480E
:1047600070470000255800080146014870470000C6
:104770004658000810B50446204600F010F810B95D
:104780004FF0FF3010BDA068401CA06000F0B4FAEC
:10479000F8E770B504460D46FDF7C4FA70BD10B5D4
:1047A000044600F09DFA10BD054901604FF4E13167
:1047B00041600021C160816041610161704700007A
:1047C000345500082DE9F04105460E460024311904
:1047D000281D00F075F90444311905F1180000F0A6
:1047E00037F80444002708E005F12C0252F827109E
:1047F0003019FFF70DFF04447F1C092FF4D3311942
:1048000005F1500000F03EF80444002708E005F1EF
:10481000600252F827103019FFF7FAFE04447F1C9B
:10482000092FF4D3311905F1840000F02BF804446A
:10483000002708E005F1940252F827103019FFF71D
:10484000E7FE04447F1C092FF4D32046BDE8F08125
:1048500070B505460E46002430196968FFF7D8FE8A
:1048600004443019A968FFF7D3FE04443019E968FD
:10487000FFF7CEFE044430192969FFF7C9FE04444E
:10488000204670BD70B505460E4600243019696893
:10489000FFF7BEFE04443019A968FFF7B9FE0444CF
:1048A0003019E968FFF7B4FE0444204670BD2DE9D5
:1048B000F84306460D46002430792855B088000A92
:1048C000291948707068000C291988707068000EEA
:1048D0002919C870241D002013E0F16851F8201038
:1048E0000091009929550099090A2A1951700099D7
:1048F000090C2A1991700099090E2A19D170241DEA
:10490000401C71688142E8D8307C2855308A000A02
:10491000291948703069000C291988703069000E17
:104920002919C870241D002013E0B16951F8201026
:104930000091009929550099090A2A195170009986
:10494000090C2A1991700099090E2A19D170241D99
:10495000401C31698142E8D8307F2855B08B000A6D
:1049600029194870F069000C29198870F069000E47
:104970002919C870241D002713E0716A51F8270017
:10498000FBF7A4FC80462819414600F023FD241DB6
:10499000726A52F8271028194246FBF7B6FC4444C5
:1049A0007F1CF069B842E8D82046BDE8F8832DE9BD
:1049B000F04105460E46002428793055641CA8684D
:1049C000FBF784FC07463019394600F003FD241D2F
:1049D00030193A46A968FBF798FC3C442046BDE8EC
:1049E000F0812DE9F84306460D460024307928551C
:1049F000B088000A29194870A41CB068FBF766FC4F
:104A000007462819394600F0E5FC241D28193A46C6
:104A1000B168FBF77AFC3C44F068FBF757FC804632
:104A20002819414600F0D6FC241D28194246F16899
:104A3000FBF76BFC44443069FBF748FC81462819BE
:104A4000494600F0C7FC241D28194A463169FBF786
:104A50005CFC4C4470690090009828550098000A4E
:104A6000291948700098000C291988700098000EC8
:104A70002919C870241D2046BDE8F88310B50246E8
:104A8000002013790B5493881B0A0C186370536829
:104A90001B0C0C18A37053681B0E0C18E370001D40
:104AA000137A0B5413891B0A0C18637093681B0C40
:104AB0000C18A37093681B0E0C18E370001D10BD3A
:104AC0002DE9F04105460E46002428793055A88886
:104AD000000A311948706868000C311988706868DC
:104AE000000E3119C870241D287A30552889000A13
:104AF00031194870A868000C31198870A868000E38
:104B00003119C870241D287B3055A889000A311935
:104B10004870E868000C31198870E868000E311997
:104B2000C870241D2869FBF7D1FB074630193946A8
:104B300000F050FC241D30193A462969FBF7E5FBCB
:104B40003C442046BDE8F0812DE9F04105460E4683
:104B500000246868FBF7BAFB07463019394600F0B5
:104B600039FC241D30193A466968FBF7CEFB3C44FA
:104B70002046BDE8F081000002480068C0F3022032
:104B8000704700000CED00E010B5002804DB0A07B8
:104B9000130E054A135406E00A07140E034A00F0E8
:104BA0000F031B1FD45410BD00E400E018ED00E01B
:104BB0000020FBF7FEBC000010B50E4800F094FB8F
:104BC0000D4C2046FFF75CFD04460C4820600C4865
:104BD000606000BF0023084A0AA10C48FFF764FD8B
:104BE0000B48FFF7A7FB0023094A0AA10A48FFF771
:104BF0005BFD10BDDC1B002098010020485600081A
:104C0000565800086368617474657200342500208A
:104C100048250020696D75000026002000B5024877
:104C2000FFF7C2FD00BD00001426002010B54FF4B0
:104C300080510848FBF7CCFF0748084948600848FE
:104C4000FFF728FD074800F0B7F94FF4FA70FBF7BB
:104C50001BFE10BD000C0140A001002098010020A7
:104C600034250020DC1B0020FBF7D2FFFDF769FA9A
:104C7000FDF712F8FDF756F800F004F801E0FFF731
:104C8000D5FFFCE710B500BF00BF134A916850681C
:104C9000FFF77FFD00BF00200F49C1F8E008C1F811
:104CA000E408C1F8EC08C1F8E80800BF0B4A00BFEF
:104CB0000EE001F6180353F8203043B901F618034B
:104CC00043F8202000F17D039360D16003E0401C95
:104CD0001928EEDB00BF10BDDC1B002034250020AE
:104CE0000348008803490988401AC0F30A00704746
:104CF000580000205C0000200D4800680D4909683C
:104D0000884202D14FF0FF3070470B48094A1268C1
:104D1000815C084A1288521C90B2C21700EB5252B2
:104D2000D212A0EBC222034B1A600846ECE7000047
:104D3000580000205C000020DC12002070B586B016
:104D400004466E463046FFF79BFC064648483060F6
:104D50000020B0804748B060F06030610020706192
:104D600000BF00253DE004F6180050F82500B8B358
:104D700004F6180050F82500008980B2ADF8040050
:104D800004F6180050F825000068029004F6180296
:104D900052F82520506804F6180252F8252052686F
:104DA000126891688847039004F6180252F825208B
:104DB000506804F6180252F8252052681268D1682B
:104DC000884704904FF48060059004F6180151F86C
:104DD000250001690E4620686A4603682046984708
:104DE0006D1C192DBFDB00253AE004F67C0050F85D
:104DF0002500A0B304F67C0050F82500808880B21E
:104E0000ADF8040004F67C0050F82500806802909C
:104E100004F67C0252F8250052F8252012689168A9
:104E20008847039004F67C0252F8250052F82520AA
:104E30001268D168884704904FF48060059004F6AA
:104E40007C0252F8250052F82520126851688847E4
:104E5000064620686A4631460368204698476D1C1E
:104E6000192DC2DB012084F8F40806B070BD0000E3
:104E7000C05500088A5700083EB504466846FFF74B
:104E800051FC20686A460A2103682046984700BF03
:104E900001480068E0603EBD700000202DE9FE4F33
:104EA00004460E469246642E05DB94F8F40810B9C9
:104EB0000020BDE8FE8FDAF8000004F21F4102680E
:104EC0005046904785B2FF2084F81804FE2140F236
:104ED00019400155401C05552912401C0155411E21
:104EE0000A5D0146095D5018C11700EB11610912F6
:104EF000A0EB0121C1F1FF01CAB240F21C410A55E9
:104F0000481C0655C6F30721401C01550027052003
:104F100004E004F58361095C0F44401CE91D8842EC
:104F2000F7DBE81D85B23846F91707EB1161091266
:104F3000A7EB0121C1F1FF01CBB229466A1C95B252
:104F400004F583625354B5F5806F0DDC9046A94695
:104F500000BF00BF1FFA89F14046FBF75DFC002847
:104F6000F8D100BF2846A4E7DFF840804FF0030BDC
:104F7000E9464846FFF784FB81460D48C9F8000022
:104F8000002089F804000B48C9F8080000BF8DF81C
:104F900004B0CDF8088020686A46072103682046DF
:104FA000984700BF00BF4FF0FF3082E78B570008E3
:104FB000A85500084F57000870B5044600BFA04828
:104FC00000680646D4F8FC08301A42F6F8218842F8
:104FD00002D9002084F8F408D4F8E00830B1D4F8FD
:104FE0000009B04202D20020C4F8E00814E100BF7A
:104FF000606802681168884720B16068026851687B
:10500000884701E04FF0FF300546002D00DA04E14B
:10501000D4F8F0082844C4F8F008D4F8E0080728C9
:1050200014D1D4F8EC28501CC4F8EC0804F1180092
:105030008554D4F8E408401EC4F8E408D4F8E40821
:10504000002802D10820C4F8E008E4E0D4F8E00821
:10505000B0B9FF2D09D1D4F8E008401CC4F8E0082D
:1050600006F11400C4F80009D5E000BF74480068D8
:10507000801B0528E9D9002084F8F408801E70BD43
:10508000D4F8E008012812D1FE2D05D1D4F8E008AB
:10509000401CC4F8E008BEE00020C4F8E00894F822
:1050A000F4080028D1D12046FFF7E6FEB3E0D4F89B
:1050B000E00802280BD104F50E6465600020E06072
:1050C0002068401C20602561A4F50E64A3E0D4F89C
:1050D000E00803280BD1D4F8E40800EB0520C4F85D
:1050E000E408D4F8E008401CC4F8E00893E0D4F8E1
:1050F000E008042813D1D4F8F008C11700EB1161BF
:105100000912A0EB0121FF2905D1D4F8E008401CC9
:10511000C4F8E0087FE00020C4F8E0087BE0D4F8A1
:10512000E008052809D1C4F8E858D4F8E008401C84
:10513000C4F8E008C4F8F0586DE0D4F8E008062898
:105140000FD1D4F8E80800EB0520C4F8E8080720E0
:10515000C4F8E008D4F8E40868BB0820C4F8E00804
:1051600059E0D4F8E008082855D10020C4F8E00838
:10517000D4F8F008C11700EB11610912A0EB01216E
:10518000FF2948D1D4F8E80860B92046FFF774FE3B
:105190002046FFF7D3FDC4F8F868C4F8FC684FF068
:1051A000FF306CE7D4F8E8080A2805D104F11801AB
:1051B000204600F047F82EE0D4F8E808062809D188
:1051C00004F1180104F60810FFF72AF9012084F809
:1051D000040920E0D4F8E8080B2803D1002084F863
:1051E000F40818E0D4F8E808643804F67C0151F8B3
:1051F000200080B1D4F8E818643904F67C0353F831
:105200002100D4F8E818643953F8211009680A68B5
:1052100004F11801904700BFE9E600BF94F8F408D4
:1052200058B1D4F8F808301A40F6C411884204D9AD
:105230002046FFF721FEC4F8F86800201FE70000B1
:10524000700000202DE9FE43044688466846FFF7BB
:1052500069FA00BF22480068E168461A414668467C
:10526000FFF726FA4FF47A70B6FBF0F00199084484
:1052700001904FF47A70B6FBF0F100FB116043F639
:1052800009514843029901EB8011029101AD00BF21
:105290001348006807464FF47A70B7FBF0F02968AE
:1052A000081A401E20614FF47A70B7FBF0F100FB42
:1052B000117043F6095148436968A1EB8010094910
:1052C0000844606104F11401081FFFF78FF900BF63
:1052D00000BF03480068C4F8FC08BDE8FE83000076
:1052E0007000002000CA9A3B70B504462D492E4834
:1052F0002060201D2D4901604FF46141416000BFD5
:10530000041F002084F8F40804F608152846FFF767
:10531000B7F905462648286000206860E8602861E3
:10532000A861E861686200BFA5F6081400BF05E047
:10533000002204F6180141F82020401C1928F7D358
:10534000002005E0002204F67C0141F82020401CEA
:105350001928F7D3002004E0002204F118010A54B0
:10536000401CB0F5806FF7D3002004E0002204F564
:1053700083610A54401CB0F5806FF7D3002140F6DA
:105380000C10015140F614100151001D01514FF451
:105390001260015140F60C10015140F614100151F9
:1053A000204670BDEC550008D85500081426002092
:1053B0009055000810B50A460021016000BF06E0C4
:1053C000535CCC00A340046823430360491C0429B8
:1053D000F6D310BD0246002004E0C30021FA03F317
:1053E0001354401C0428F8D37047401058BFC0F134
:1053F0004040491058BFC1F140418142EFF3008065
:105400007047000050EA010C00F113801CF5000FFA
:1054100058BFBCF5000F01D48842704707D710F57C
:10542000000F58BF11F5000F15D48842704789420C
:1054300070471CF5000F04D5BCF5000FF7D581426D
:1054400070474FF0807C1CEB400F38BF1CEB410FC6
:1054500001D28142704710B500F008F8922449004B
:105460004FF000504FF08051FFF7BFBF0EF1020E1A
:105470002EF0030E5EF8044B244204D44FEA41029E
:10548000B2F17F4F11D84FEA4003B3F17F4F0CD8F0
:105490000ED14FEAD07CB2F17F4F0CEB4C0C0CF1EB
:1054A000020C08BF4CEBD17C04E04FF0080C01E08B
:1054B0004FEAD17C0CEB4C0324FA03F404F007040C
:1054C000B4F1040C06D20EEB840CBDE810404CF095
:1054D000010C6047DFE80CF0070802024FF00040C3
:1054E000A0F5800010BD0846420018BFD2F18072BE
:1054F00088BF00F0004010BD000000000000000068
:105500000102030406070809000000000102030469
:10551000726F7373657269616C5F6D7367732F521D
:10552000657175657374506172616D0000000000F3
:10553000000000009F4700087547000800000000B9
:105540000000000000000000C54700080000000047
:10555000294300081D43000800000000000000006F
:105560005148000800000000DD430008D143000856
:105570000000000000000000854800080000000056
:10558000F5430008E94300080000000000000000A7
:10559000AF48000821440008B1450008A5450008AF
:1055A0000000000000000000AF49000800000000FB
:1055B000C9450008BD4500080000000000000000CB
:1055C000E349000800000000E1450008D545000857
:1055D00000000000000000009D4E0008B94F0008C8
:1055E000000000000000000000000000B14B0008B7
:1055F000B14B0008B14B00080000000000000000A3
:10560000B14B0008B14B0008B14B0008B14B00088A
:1056100000000000000000007D4A0008B1460008BC
:10562000194700080D4700080000000000000000B6
:10563000C14A000800000000514700084547000823
:105640000000000000000000494B000800000000BE
:10565000694700085D470008366136326336646189
:1056600061653130336634666635376131333264B3
:1056700036663935636563320073656E736F725FCA
:105680006D7367732F496D75006137373938373956
:1056900066616466303136303733346639303662AD
:1056A0003863313963373030340067656F6D657446
:1056B00072795F6D7367732F5175617465726E696E
:1056C0006F6E0034613834326236356634313330CF
:1056D000383464633262313066623438346561373D
:1056E0006631370067656F6D657472795F6D7367DA
:1056F000732F566563746F723300396630653938BD
:105700006264613635393831393836646466353328
:10571000616661376134306534390031316162640A
:1057200037333163323539333332363163643631AE
:10573000383362643132643632393500726F7373D4
:10574000657269616C5F6D7367732F4C6F670000E2
:1057500030616435316638386663343438393266DE
:1057600038633130363834303737363436303035C8
:1057700000726F7373657269616C5F6D7367732F0D
:10578000546F706963496E666F00004D6573736195
:1057900067652066726F6D20646576696365206455
:1057A000726F707065643A206D6573736167652010
:1057B0006C6172676572207468616E2062756666DE
:1057C00065722E006364373136366337346335359E
:1057D00032633331316662636332666535613762E5
:1057E00063323839007374645F6D7367732F546963
:1057F0006D65003231373664656361656362636588
:1058000037386162633362393665663034396661D0
:10581000626564007374645F6D7367732F486561BC
:105820006465720000393932636538613136383762
:10583000636563386338626438383365633733636C
:105840006134316431007374645F6D7367732F5317
:105850007472696E67000000805800080000002024
:10586000BC010000280100085C590008BC010020B0
:10587000D43400008401000841F3FFFFA1F3FFFFCF
:105880001331271B0879041A89041AA5041AE504A0
:1058900013FD261B084108131201140202021640D0
:1058A00083043A57260201020301072A040309046C
:1058B0001A03139D071B0899041A55041AC10441C1
:1058C0003210194B215324F4130A0632022A4014D1
:1058D000138D231408CB224C08AF242C1A19101A4C
:1058E00021101A9704C11A6D181A5D041A7D041A42
:1058F0004D041C090243A3111DC03209045D1A02A4
:105900000B130524161001052401100901042402BB
:1059100002052406170107058203081C100904D993
:10592000320A1D070501027B2C0705810711093783
:10593000442A40072A8107112B0907440A3B0444E3
:10594000C1200D48656C6C6F20776F726C642112FA
:0C595000021205120812011204320900B4
:04000005080000ED02
:00000001FF
